{
  "contractName": "Mining",
  "abi": [
    {
      "constant": false,
      "inputs": [],
      "name": "getDifficulty",
      "outputs": [
        {
          "name": "",
          "type": "uint256"
        }
      ],
      "payable": false,
      "stateMutability": "nonpayable",
      "type": "function",
      "signature": "0xb6baffe3"
    },
    {
      "constant": false,
      "inputs": [
        {
          "name": "date",
          "type": "uint256"
        },
        {
          "name": "difficulty",
          "type": "uint256"
        },
        {
          "name": "above",
          "type": "bool"
        }
      ],
      "name": "setPrediction",
      "outputs": [],
      "payable": true,
      "stateMutability": "payable",
      "type": "function",
      "signature": "0xc10dbb77"
    },
    {
      "constant": false,
      "inputs": [
        {
          "name": "index",
          "type": "uint256"
        },
        {
          "name": "_address",
          "type": "address"
        }
      ],
      "name": "getPredictionFromAddressExternal",
      "outputs": [
        {
          "name": "",
          "type": "address"
        },
        {
          "name": "",
          "type": "uint256"
        },
        {
          "name": "",
          "type": "uint256"
        },
        {
          "name": "",
          "type": "bool"
        },
        {
          "name": "",
          "type": "uint256"
        }
      ],
      "payable": false,
      "stateMutability": "nonpayable",
      "type": "function",
      "signature": "0xf6a28381"
    }
  ],
  "bytecode": "0x608060405234801561001057600080fd5b50610621806100206000396000f300608060405260043610610057576000357c0100000000000000000000000000000000000000000000000000000000900463ffffffff168063b6baffe31461005c578063c10dbb7714610087578063f6a28381146100bd575b600080fd5b34801561006857600080fd5b5061007161016a565b6040518082815260200191505060405180910390f35b6100bb6004803603810190808035906020019092919080359060200190929190803515159060200190929190505050610172565b005b3480156100c957600080fd5b5061010860048036038101908080359060200190929190803573ffffffffffffffffffffffffffffffffffffffff1690602001909291905050506103d5565b604051808673ffffffffffffffffffffffffffffffffffffffff1673ffffffffffffffffffffffffffffffffffffffff168152602001858152602001848152602001831515151581526020018281526020019550505050505060405180910390f35b600044905090565b61017a610593565b60a0604051908101604052803373ffffffffffffffffffffffffffffffffffffffff1681526020013373ffffffffffffffffffffffffffffffffffffffff1631815260200184815260200183151581526020018581525090506001819080600181540180825580915050906001820390600052602060002090600502016000909192909190915060008201518160000160006101000a81548173ffffffffffffffffffffffffffffffffffffffff021916908373ffffffffffffffffffffffffffffffffffffffff160217905550602082015181600101556040820151816002015560608201518160030160006101000a81548160ff021916908315150217905550608082015181600401555050506000803373ffffffffffffffffffffffffffffffffffffffff1673ffffffffffffffffffffffffffffffffffffffff168152602001908152602001600020600001819080600181540180825580915050906001820390600052602060002090600502016000909192909190915060008201518160000160006101000a81548173ffffffffffffffffffffffffffffffffffffffff021916908373ffffffffffffffffffffffffffffffffffffffff160217905550602082015181600101556040820151816002015560608201518160030160006101000a81548160ff021916908315150217905550608082015181600401555050506000803373ffffffffffffffffffffffffffffffffffffffff1673ffffffffffffffffffffffffffffffffffffffff1681526020019081526020016000206001016000815480929190600101919050555050505050565b60008060008060006103e56105db565b6103ed610593565b6103f5610444565b915081600001518981518110151561040957fe5b906020019060200201519050806000015181602001518260400151836060015184608001519650965096509650965050509295509295909350565b61044c6105db565b6000803373ffffffffffffffffffffffffffffffffffffffff1673ffffffffffffffffffffffffffffffffffffffff16815260200190815260200160002060408051908101604052908160008201805480602002602001604051908101604052809291908181526020016000905b8282101561057c578382906000526020600020906005020160a060405190810160405290816000820160009054906101000a900473ffffffffffffffffffffffffffffffffffffffff1673ffffffffffffffffffffffffffffffffffffffff1673ffffffffffffffffffffffffffffffffffffffff16815260200160018201548152602001600282015481526020016003820160009054906101000a900460ff16151515158152602001600482015481525050815260200190600101906104ba565b505050508152602001600182015481525050905090565b60a060405190810160405280600073ffffffffffffffffffffffffffffffffffffffff1681526020016000815260200160008152602001600015158152602001600081525090565b6040805190810160405280606081526020016000815250905600a165627a7a72305820ce6b024f267bd353568b40aa2634c421cae3fe64ad945e94dcbb4325dc341da30029",
  "source": "pragma solidity ^0.4.24;\n\ncontract Mining{\n\tstruct Prediction {\n\t\taddress predicter;\n\t\tuint amount;\n\t\tuint difficultyPrediction;\n\t\tbool above;\n\t\tuint time;\n\t}\n\tstruct UserPredictions {\n\t\tPrediction[] predictions;\n\t\tuint length;\n\t}\n\tmapping(address => UserPredictions) predictionAddress;\n\tPrediction[] predictionArray;\n\tfunction getDifficulty() public returns(uint){\n\t\treturn block.difficulty;\n\t}\n\tfunction setPrediction(uint date, uint difficulty, bool above) public payable{\n\t\tPrediction memory prediction = Prediction(msg.sender,msg.sender.balance,difficulty,above,date);\n\t\tpredictionArray.push(prediction);\n\t\tpredictionAddress[msg.sender].predictions.push(prediction);\n\t\tpredictionAddress[msg.sender].length++;\n\t}\n\tfunction getPredictionFromAddress() internal returns (UserPredictions memory){\n\t\treturn predictionAddress[msg.sender];\n\t}\n\tfunction getPredictionFromAddressExternal(uint index, address _address) public returns (address,uint,uint,bool,uint){\n\t\tUserPredictions memory predictionArray = getPredictionFromAddress();\n\t\tPrediction memory prediction = predictionArray.predictions[index];\n\t\treturn (prediction.predicter,prediction.amount,prediction.difficultyPrediction,prediction.above,prediction.time);\n\t}\n}",
  "sourcePath": "/home/robin/workspace/ethereum-stuff/predictMining/contracts/Mining.sol",
  "compiler": {
    "name": "solc",
    "version": "0.4.24+commit.e67f0147.Emscripten.clang"
  },
  "schemaVersion": "3.0.0",
  "updatedAt": "2019-01-07T21:38:42.072Z",
  "devdoc": {
    "methods": {}
  },
  "userdoc": {
    "methods": {}
  }
}