{
  "contractName": "Mining",
  "abi": [
    {
      "constant": true,
      "inputs": [],
      "name": "difficulty",
      "outputs": [
        {
          "name": "",
          "type": "uint256"
        }
      ],
      "payable": false,
      "stateMutability": "view",
      "type": "function"
    },
    {
      "constant": true,
      "inputs": [
        {
          "name": "",
          "type": "address"
        }
      ],
      "name": "predictionAddress",
      "outputs": [
        {
          "name": "length",
          "type": "uint256"
        },
        {
          "name": "sum",
          "type": "uint256"
        }
      ],
      "payable": false,
      "stateMutability": "view",
      "type": "function"
    },
    {
      "constant": true,
      "inputs": [
        {
          "name": "",
          "type": "uint256"
        }
      ],
      "name": "predictionArray",
      "outputs": [
        {
          "name": "predicter",
          "type": "address"
        },
        {
          "name": "amount",
          "type": "uint256"
        },
        {
          "name": "difficultyPrediction",
          "type": "uint256"
        },
        {
          "name": "above",
          "type": "bool"
        },
        {
          "name": "time",
          "type": "uint256"
        }
      ],
      "payable": false,
      "stateMutability": "view",
      "type": "function"
    },
    {
      "constant": true,
      "inputs": [],
      "name": "predictionArrayLength",
      "outputs": [
        {
          "name": "",
          "type": "uint256"
        }
      ],
      "payable": false,
      "stateMutability": "view",
      "type": "function"
    },
    {
      "constant": true,
      "inputs": [
        {
          "name": "",
          "type": "uint256"
        }
      ],
      "name": "predictionsAtTime",
      "outputs": [
        {
          "name": "length",
          "type": "uint256"
        },
        {
          "name": "sum",
          "type": "uint256"
        }
      ],
      "payable": false,
      "stateMutability": "view",
      "type": "function"
    },
    {
      "payable": true,
      "stateMutability": "payable",
      "type": "fallback"
    },
    {
      "anonymous": false,
      "inputs": [
        {
          "indexed": false,
          "name": "refundAddress",
          "type": "address"
        },
        {
          "indexed": false,
          "name": "amount",
          "type": "uint256"
        }
      ],
      "name": "Refund",
      "type": "event"
    },
    {
      "anonymous": false,
      "inputs": [
        {
          "indexed": false,
          "name": "sendAddress",
          "type": "address"
        },
        {
          "indexed": false,
          "name": "amount",
          "type": "uint256"
        }
      ],
      "name": "SendEther",
      "type": "event"
    },
    {
      "constant": false,
      "inputs": [],
      "name": "getDifficulty",
      "outputs": [
        {
          "name": "",
          "type": "uint256"
        }
      ],
      "payable": false,
      "stateMutability": "nonpayable",
      "type": "function"
    },
    {
      "constant": false,
      "inputs": [
        {
          "name": "date",
          "type": "uint256"
        },
        {
          "name": "difficulty",
          "type": "uint256"
        },
        {
          "name": "above",
          "type": "bool"
        }
      ],
      "name": "setPrediction",
      "outputs": [],
      "payable": true,
      "stateMutability": "payable",
      "type": "function"
    },
    {
      "constant": false,
      "inputs": [
        {
          "name": "index",
          "type": "uint256"
        },
        {
          "name": "_address",
          "type": "address"
        }
      ],
      "name": "getPredictionFromAddressExternal",
      "outputs": [
        {
          "name": "",
          "type": "address"
        },
        {
          "name": "",
          "type": "uint256"
        },
        {
          "name": "",
          "type": "uint256"
        },
        {
          "name": "",
          "type": "bool"
        },
        {
          "name": "",
          "type": "uint256"
        }
      ],
      "payable": false,
      "stateMutability": "nonpayable",
      "type": "function"
    },
    {
      "constant": false,
      "inputs": [
        {
          "name": "time",
          "type": "uint256"
        }
      ],
      "name": "evaluatePredictions",
      "outputs": [],
      "payable": false,
      "stateMutability": "nonpayable",
      "type": "function"
    },
    {
      "constant": false,
      "inputs": [
        {
          "name": "time",
          "type": "uint256"
        },
        {
          "name": "difficulty",
          "type": "uint256"
        }
      ],
      "name": "simulateEvaluatePredictions",
      "outputs": [],
      "payable": false,
      "stateMutability": "nonpayable",
      "type": "function"
    }
  ],
  "bytecode": "0x608060405234801561001057600080fd5b50610ff7806100206000396000f3fe6080604052600436106100ae576000357c010000000000000000000000000000000000000000000000000000000090048063959e1af411610076578063959e1af414610248578063b6baffe31461029e578063c10dbb77146102c9578063c719387f1461030d578063f6a2838114610352576100ae565b806304964bb2146100b057806319cae462146100eb5780631fc245941461011657806328d96d62146101825780635ce021c31461021d575b005b3480156100bc57600080fd5b506100e9600480360360208110156100d357600080fd5b810190808035906020019092919050505061040d565b005b3480156100f757600080fd5b5061010061041a565b6040518082815260200191505060405180910390f35b34801561012257600080fd5b506101656004803603602081101561013957600080fd5b81019080803573ffffffffffffffffffffffffffffffffffffffff169060200190929190505050610420565b604051808381526020018281526020019250505060405180910390f35b34801561018e57600080fd5b506101bb600480360360208110156101a557600080fd5b8101908080359060200190929190505050610444565b604051808673ffffffffffffffffffffffffffffffffffffffff1673ffffffffffffffffffffffffffffffffffffffff168152602001858152602001848152602001831515151581526020018281526020019550505050505060405180910390f35b34801561022957600080fd5b506102326104b4565b6040518082815260200191505060405180910390f35b34801561025457600080fd5b506102816004803603602081101561026b57600080fd5b81019080803590602001909291905050506104ba565b604051808381526020018281526020019250505060405180910390f35b3480156102aa57600080fd5b506102b36104de565b6040518082815260200191505060405180910390f35b61030b600480360360608110156102df57600080fd5b8101908080359060200190929190803590602001909291908035151590602001909291905050506104ef565b005b34801561031957600080fd5b506103506004803603604081101561033057600080fd5b81019080803590602001909291908035906020019092919050505061086f565b005b34801561035e57600080fd5b506103ab6004803603604081101561037557600080fd5b8101908080359060200190929190803573ffffffffffffffffffffffffffffffffffffffff169060200190929190505050610d94565b604051808673ffffffffffffffffffffffffffffffffffffffff1673ffffffffffffffffffffffffffffffffffffffff168152602001858152602001848152602001831515151581526020018281526020019550505050505060405180910390f35b610417814461086f565b50565b60045481565b60006020528060005260406000206000915090508060010154908060020154905082565b6002818154811061045157fe5b90600052602060002090600502016000915090508060000160009054906101000a900473ffffffffffffffffffffffffffffffffffffffff16908060010154908060020154908060030160009054906101000a900460ff16908060040154905085565b60035481565b60016020528060005260406000206000915090508060010154908060020154905082565b600044600481905550600454905090565b6104f7610f5a565b6040518060a001604052803373ffffffffffffffffffffffffffffffffffffffff16815260200134815260200184815260200183151581526020018581525090506002819080600181540180825580915050906001820390600052602060002090600502016000909192909190915060008201518160000160006101000a81548173ffffffffffffffffffffffffffffffffffffffff021916908373ffffffffffffffffffffffffffffffffffffffff160217905550602082015181600101556040820151816002015560608201518160030160006101000a81548160ff021916908315150217905550608082015181600401555050506003600081548092919060010191905055506000803373ffffffffffffffffffffffffffffffffffffffff1673ffffffffffffffffffffffffffffffffffffffff168152602001908152602001600020600001819080600181540180825580915050906001820390600052602060002090600502016000909192909190915060008201518160000160006101000a81548173ffffffffffffffffffffffffffffffffffffffff021916908373ffffffffffffffffffffffffffffffffffffffff160217905550602082015181600101556040820151816002015560608201518160030160006101000a81548160ff021916908315150217905550608082015181600401555050506000803373ffffffffffffffffffffffffffffffffffffffff1673ffffffffffffffffffffffffffffffffffffffff1681526020019081526020016000206001016000815480929190600101919050555060016000858152602001908152602001600020600001819080600181540180825580915050906001820390600052602060002090600502016000909192909190915060008201518160000160006101000a81548173ffffffffffffffffffffffffffffffffffffffff021916908373ffffffffffffffffffffffffffffffffffffffff160217905550602082015181600101556040820151816002015560608201518160030160006101000a81548160ff02191690831515021790555060808201518160040155505050600160008581526020019081526020016000206001016000815480929190600101919050555034600160008681526020019081526020016000206002015401600160008681526020019081526020016000206002018190555050505050565b600060016000848152602001908152602001600020905060008090506000809050606083600101546040519080825280602002602001820160405280156108c55781602001602082028038833980820191505090505b5090506000606085600101546040519080825280602002602001820160405280156108ff5781602001602082028038833980820191505090505b50905060008090505b8660010154811015610c6d5786600001818154811061092357fe5b906000526020600020906005020160020154881415610a7957600087600001828154811061094d57fe5b906000526020600020906005020160000160009054906101000a900473ffffffffffffffffffffffffffffffffffffffff1690508073ffffffffffffffffffffffffffffffffffffffff166108fc8960000184815481106109aa57fe5b9060005260206000209060050201600101549081150290604051600060405180830381858888f193505050501580156109e7573d6000803e3d6000fd5b507fbb28353e4598c3b9199101a66e0989549b659a59a54d2c27fbb183f1932c8e6d81896000018481548110610a1957fe5b906000526020600020906005020160010154604051808373ffffffffffffffffffffffffffffffffffffffff1673ffffffffffffffffffffffffffffffffffffffff1681526020018281526020019250505060405180910390a150610c60565b866000018181548110610a8857fe5b9060005260206000209060050201600201548810158015610ada575060011515876000018281548110610ab757fe5b906000526020600020906005020160030160009054906101000a900460ff161515145b80610b425750866000018181548110610aef57fe5b9060005260206000209060050201600201548811158015610b41575060001515876000018281548110610b1e57fe5b906000526020600020906005020160030160009054906101000a900460ff161515145b5b15610c3957866000018181548110610b5657fe5b90600052602060002090600502016001015485019450866000018181548110610b7b57fe5b906000526020600020906005020160000160009054906101000a900473ffffffffffffffffffffffffffffffffffffffff16848281518110610bb957fe5b602002602001019073ffffffffffffffffffffffffffffffffffffffff16908173ffffffffffffffffffffffffffffffffffffffff1681525050866000018181548110610c0257fe5b906000526020600020906005020160010154828281518110610c2057fe5b6020026020010181815250508280600101935050610c5f565b866000018181548110610c4857fe5b906000526020600020906005020160010154860195505b5b8080600101915050610908565b5060008090505b82811015610d89576000828281518110610c8a57fe5b602002602001015187896002015481610c9f57fe5b040290507f5cf9c3dc0403b88750b3ce5ea792cdca787ff26128f6d508b99b2d3853ae13ec858381518110610cd057fe5b602002602001015182604051808373ffffffffffffffffffffffffffffffffffffffff1673ffffffffffffffffffffffffffffffffffffffff1681526020018281526020019250505060405180910390a1848281518110610d2d57fe5b602002602001015173ffffffffffffffffffffffffffffffffffffffff166108fc829081150290604051600060405180830381858888f19350505050158015610d7a573d6000803e3d6000fd5b50508080600101915050610c74565b505050505050505050565b6000806000806000610da4610fa1565b610dac610e02565b9050610db6610f5a565b81600001518981518110610dc657fe5b60200260200101519050806000015181602001518260400151836060015184608001518494509650965096509650965050509295509295909350565b610e0a610fa1565b6000803373ffffffffffffffffffffffffffffffffffffffff1673ffffffffffffffffffffffffffffffffffffffff16815260200190815260200160002060405180606001604052908160008201805480602002602001604051908101604052809291908181526020016000905b82821015610f3957838290600052602060002090600502016040518060a00160405290816000820160009054906101000a900473ffffffffffffffffffffffffffffffffffffffff1673ffffffffffffffffffffffffffffffffffffffff1673ffffffffffffffffffffffffffffffffffffffff16815260200160018201548152602001600282015481526020016003820160009054906101000a900460ff1615151515815260200160048201548152505081526020019060010190610e78565b50505050815260200160018201548152602001600282015481525050905090565b6040518060a00160405280600073ffffffffffffffffffffffffffffffffffffffff1681526020016000815260200160008152602001600015158152602001600081525090565b6040518060600160405280606081526020016000815260200160008152509056fea265627a7a72305820dda9e2dad851d2896f47b0c2e51bf3ce59fa24fb6a57975b7e7561023fec889564736f6c634300050a0032",
  "source": "pragma solidity ^0.5.10;\ncontract Mining{\n/*\tusing SafeMath for uint256;\n*/\tfunction() external payable {\n\t }\n\n\tstruct Prediction {\n\t\taddress payable predicter;\n\t\tuint amount;\n\t\tuint difficultyPrediction;\n\t\tbool above;\n\t\tuint time;\n\t}\n\tstruct UserPredictions {\n\t\tPrediction[] predictions;\n\t\tuint length;\n\t\tuint sum;\n\t}\n\tmapping(address => UserPredictions) public predictionAddress;\n\tmapping(uint => UserPredictions) public predictionsAtTime;\n\tPrediction[] public predictionArray;\n\tuint public predictionArrayLength;\n\n\tuint public difficulty;\n\tfunction getDifficulty() public returns(uint){\n\t\tdifficulty = block.difficulty;\n\t\treturn difficulty;\n\t}\n\tfunction setPrediction(uint date, uint difficulty, bool above) public payable{\n\t\tPrediction memory prediction = Prediction(msg.sender,msg.value,difficulty,above,date);\n\t\tpredictionArray.push(prediction);\n\t\tpredictionArrayLength++;\n\t\tpredictionAddress[msg.sender].predictions.push(prediction);\n\t\tpredictionAddress[msg.sender].length++;\n\t\tpredictionsAtTime[date].predictions.push(prediction);\n\t\tpredictionsAtTime[date].length++;\n\t\tpredictionsAtTime[date].sum = predictionsAtTime[date].sum + msg.value;\n\t}\n\tfunction getPredictionFromAddress() internal returns (UserPredictions memory){\n\t\treturn predictionAddress[msg.sender];\n\t}\n\tfunction getPredictionFromAddressExternal(uint index, address _address) public returns (address,uint,uint,bool,uint){\n\t\tUserPredictions memory predictionArray = getPredictionFromAddress();\n\t\tPrediction memory prediction = predictionArray.predictions[index];\n\t\treturn (prediction.predicter,prediction.amount,prediction.difficultyPrediction,prediction.above,prediction.time);\n\t}\n\tevent Refund(address refundAddress, uint amount);\n\tevent SendEther(address sendAddress, uint amount);\n\tfunction evaluatePredictions(uint time) public{\n\t\tsimulateEvaluatePredictions(time, block.difficulty);\n\t}\n\n\tfunction simulateEvaluatePredictions(uint time, uint difficulty) public{\n\t\t\n\t\t//update to find correct prediction at time\n\t\tUserPredictions storage predictionsToCheck = predictionsAtTime[time];\n\t\t//require(time == predictionToCheck.time);\n\n\t\tuint incorrectSum=0;\n\t\tuint correctSum=0;\n\t\taddress payable[] memory correctAddresses = new address payable[](predictionsToCheck.length);\n\t\tuint correctWagers;\n\t\tuint[] memory correctWagersValues = new uint[](predictionsToCheck.length);\n\t\tfor (uint i = 0; i < predictionsToCheck.length; i++){\n\t\t\t//this can be changed to block.difficulty in other context, like when not testing\n\t\t\tif (difficulty == predictionsToCheck.predictions[i].difficultyPrediction){\n\t\t\t\taddress payable refunder = predictionsToCheck.predictions[i].predicter;\n\t\t\t\trefunder.transfer(predictionsToCheck.predictions[i].amount);\n\t\t\t\temit Refund(refunder, predictionsToCheck.predictions[i].amount);\n\t\t\t}\n\t\t\telse if (((difficulty >= predictionsToCheck.predictions[i].difficultyPrediction) && predictionsToCheck.predictions[i].above == true) || \n\t\t((difficulty <= predictionsToCheck.predictions[i].difficultyPrediction) && predictionsToCheck.predictions[i].above == false)) {\n\t\t\t\tcorrectSum = correctSum + predictionsToCheck.predictions[i].amount;\n\t\t\t\tcorrectAddresses[i] = predictionsToCheck.predictions[i].predicter;\n\t\t\t\tcorrectWagersValues[i] = predictionsToCheck.predictions[i].amount;\n\t\t\t\tcorrectWagers++;\n\t\t\t}\n\t\t\telse {\n\t\t\t\tincorrectSum = incorrectSum + predictionsToCheck.predictions[i].amount;\n\t\t\t}\n\t\t}\n\t\tfor(uint j=0; j < correctWagers; j++){\n\t\t\tuint winningValue = predictionsToCheck.sum/incorrectSum*correctWagersValues[j];\n\t\t\temit SendEther(correctAddresses[j], winningValue);\n\n\t\t\tcorrectAddresses[j].transfer(winningValue);\n\t\t}\n\t}\n}",
  "sourcePath": "/home/robin/workspace/PredictMining/contracts/Mining.sol",
  "compiler": {
    "name": "solc",
    "version": "0.5.10+commit.5a6ea5b1.Emscripten.clang"
  },
  "schemaVersion": "3.0.1",
  "updatedAt": "2019-07-29T17:40:28.853Z",
  "devdoc": {
    "methods": {}
  },
  "userdoc": {
    "methods": {}
  }
}