{
  "contractName": "Mining",
  "abi": [
    {
      "constant": true,
      "inputs": [],
      "name": "difficulty",
      "outputs": [
        {
          "name": "",
          "type": "uint256"
        }
      ],
      "payable": false,
      "stateMutability": "view",
      "type": "function",
      "signature": "0x19cae462"
    },
    {
      "constant": true,
      "inputs": [
        {
          "name": "",
          "type": "address"
        }
      ],
      "name": "predictionAddress",
      "outputs": [
        {
          "name": "length",
          "type": "uint256"
        },
        {
          "name": "sum",
          "type": "uint256"
        }
      ],
      "payable": false,
      "stateMutability": "view",
      "type": "function",
      "signature": "0x1fc24594"
    },
    {
      "constant": true,
      "inputs": [
        {
          "name": "",
          "type": "uint256"
        }
      ],
      "name": "predictionArray",
      "outputs": [
        {
          "name": "predicter",
          "type": "address"
        },
        {
          "name": "amount",
          "type": "uint256"
        },
        {
          "name": "difficultyPrediction",
          "type": "uint256"
        },
        {
          "name": "above",
          "type": "bool"
        },
        {
          "name": "time",
          "type": "uint256"
        }
      ],
      "payable": false,
      "stateMutability": "view",
      "type": "function",
      "signature": "0x28d96d62"
    },
    {
      "constant": true,
      "inputs": [],
      "name": "predictionArrayLength",
      "outputs": [
        {
          "name": "",
          "type": "uint256"
        }
      ],
      "payable": false,
      "stateMutability": "view",
      "type": "function",
      "signature": "0x5ce021c3"
    },
    {
      "constant": true,
      "inputs": [
        {
          "name": "",
          "type": "uint256"
        }
      ],
      "name": "predictionsAtTime",
      "outputs": [
        {
          "name": "length",
          "type": "uint256"
        },
        {
          "name": "sum",
          "type": "uint256"
        }
      ],
      "payable": false,
      "stateMutability": "view",
      "type": "function",
      "signature": "0x959e1af4"
    },
    {
      "payable": true,
      "stateMutability": "payable",
      "type": "fallback"
    },
    {
      "anonymous": false,
      "inputs": [
        {
          "indexed": false,
          "name": "refundAddress",
          "type": "address"
        },
        {
          "indexed": false,
          "name": "amount",
          "type": "uint256"
        }
      ],
      "name": "Refund",
      "type": "event",
      "signature": "0xbb28353e4598c3b9199101a66e0989549b659a59a54d2c27fbb183f1932c8e6d"
    },
    {
      "anonymous": false,
      "inputs": [
        {
          "indexed": false,
          "name": "sendAddress",
          "type": "address"
        },
        {
          "indexed": false,
          "name": "amount",
          "type": "uint256"
        }
      ],
      "name": "SendEther",
      "type": "event",
      "signature": "0x5cf9c3dc0403b88750b3ce5ea792cdca787ff26128f6d508b99b2d3853ae13ec"
    },
    {
      "constant": false,
      "inputs": [],
      "name": "getDifficulty",
      "outputs": [
        {
          "name": "",
          "type": "uint256"
        }
      ],
      "payable": false,
      "stateMutability": "nonpayable",
      "type": "function",
      "signature": "0xb6baffe3"
    },
    {
      "constant": false,
      "inputs": [
        {
          "name": "date",
          "type": "uint256"
        },
        {
          "name": "difficulty",
          "type": "uint256"
        },
        {
          "name": "above",
          "type": "bool"
        }
      ],
      "name": "setPrediction",
      "outputs": [],
      "payable": true,
      "stateMutability": "payable",
      "type": "function",
      "signature": "0xc10dbb77"
    },
    {
      "constant": false,
      "inputs": [
        {
          "name": "index",
          "type": "uint256"
        },
        {
          "name": "_address",
          "type": "address"
        }
      ],
      "name": "getPredictionFromAddressExternal",
      "outputs": [
        {
          "name": "",
          "type": "address"
        },
        {
          "name": "",
          "type": "uint256"
        },
        {
          "name": "",
          "type": "uint256"
        },
        {
          "name": "",
          "type": "bool"
        },
        {
          "name": "",
          "type": "uint256"
        }
      ],
      "payable": false,
      "stateMutability": "nonpayable",
      "type": "function",
      "signature": "0xf6a28381"
    },
    {
      "constant": false,
      "inputs": [
        {
          "name": "time",
          "type": "uint256"
        }
      ],
      "name": "evaluatePredictions",
      "outputs": [],
      "payable": false,
      "stateMutability": "nonpayable",
      "type": "function",
      "signature": "0x04964bb2"
    },
    {
      "constant": false,
      "inputs": [
        {
          "name": "time",
          "type": "uint256"
        },
        {
          "name": "difficulty",
          "type": "uint256"
        }
      ],
      "name": "simulateEvaluatePredictions",
      "outputs": [],
      "payable": false,
      "stateMutability": "nonpayable",
      "type": "function",
      "signature": "0xc719387f"
    }
  ],
  "bytecode": "0x608060405234801561001057600080fd5b50610fa5806100206000396000f3006080604052600436106100a4576000357c0100000000000000000000000000000000000000000000000000000000900463ffffffff16806304964bb2146100a657806319cae462146100d35780631fc24594146100fe57806328d96d621461015c5780635ce021c3146101e9578063959e1af414610214578063b6baffe31461025c578063c10dbb7714610287578063c719387f146102bd578063f6a28381146102f4575b005b3480156100b257600080fd5b506100d1600480360381019080803590602001909291905050506103a1565b005b3480156100df57600080fd5b506100e86103ae565b6040518082815260200191505060405180910390f35b34801561010a57600080fd5b5061013f600480360381019080803573ffffffffffffffffffffffffffffffffffffffff1690602001909291905050506103b4565b604051808381526020018281526020019250505060405180910390f35b34801561016857600080fd5b50610187600480360381019080803590602001909291905050506103d8565b604051808673ffffffffffffffffffffffffffffffffffffffff1673ffffffffffffffffffffffffffffffffffffffff168152602001858152602001848152602001831515151581526020018281526020019550505050505060405180910390f35b3480156101f557600080fd5b506101fe61044a565b6040518082815260200191505060405180910390f35b34801561022057600080fd5b5061023f60048036038101908080359060200190929190505050610450565b604051808381526020018281526020019250505060405180910390f35b34801561026857600080fd5b50610271610474565b6040518082815260200191505060405180910390f35b6102bb6004803603810190808035906020019092919080359060200190929190803515159060200190929190505050610485565b005b3480156102c957600080fd5b506102f26004803603810190808035906020019092919080359060200190929190505050610806565b005b34801561030057600080fd5b5061033f60048036038101908080359060200190929190803573ffffffffffffffffffffffffffffffffffffffff169060200190929190505050610d46565b604051808673ffffffffffffffffffffffffffffffffffffffff1673ffffffffffffffffffffffffffffffffffffffff168152602001858152602001848152602001831515151581526020018281526020019550505050505060405180910390f35b6103ab8144610806565b50565b60045481565b60006020528060005260406000206000915090508060010154908060020154905082565b6002818154811015156103e757fe5b90600052602060002090600502016000915090508060000160009054906101000a900473ffffffffffffffffffffffffffffffffffffffff16908060010154908060020154908060030160009054906101000a900460ff16908060040154905085565b60035481565b60016020528060005260406000206000915090508060010154908060020154905082565b600044600481905550600454905090565b61048d610f0f565b60a0604051908101604052803373ffffffffffffffffffffffffffffffffffffffff16815260200134815260200184815260200183151581526020018581525090506002819080600181540180825580915050906001820390600052602060002090600502016000909192909190915060008201518160000160006101000a81548173ffffffffffffffffffffffffffffffffffffffff021916908373ffffffffffffffffffffffffffffffffffffffff160217905550602082015181600101556040820151816002015560608201518160030160006101000a81548160ff021916908315150217905550608082015181600401555050506003600081548092919060010191905055506000803373ffffffffffffffffffffffffffffffffffffffff1673ffffffffffffffffffffffffffffffffffffffff168152602001908152602001600020600001819080600181540180825580915050906001820390600052602060002090600502016000909192909190915060008201518160000160006101000a81548173ffffffffffffffffffffffffffffffffffffffff021916908373ffffffffffffffffffffffffffffffffffffffff160217905550602082015181600101556040820151816002015560608201518160030160006101000a81548160ff021916908315150217905550608082015181600401555050506000803373ffffffffffffffffffffffffffffffffffffffff1673ffffffffffffffffffffffffffffffffffffffff1681526020019081526020016000206001016000815480929190600101919050555060016000858152602001908152602001600020600001819080600181540180825580915050906001820390600052602060002090600502016000909192909190915060008201518160000160006101000a81548173ffffffffffffffffffffffffffffffffffffffff021916908373ffffffffffffffffffffffffffffffffffffffff160217905550602082015181600101556040820151816002015560608201518160030160006101000a81548160ff02191690831515021790555060808201518160040155505050600160008581526020019081526020016000206001016000815480929190600101919050555034600160008681526020019081526020016000206002015401600160008681526020019081526020016000206002018190555050505050565b600080600080600080600080600080600160008d815260200190815260200160002099506000985060009750600093505b8960010154841015610be157896000018481548110151561085457fe5b9060005260206000209060050201600201548b14156109ad57896000018481548110151561087e57fe5b906000526020600020906005020160000160009054906101000a900473ffffffffffffffffffffffffffffffffffffffff1692508273ffffffffffffffffffffffffffffffffffffffff166108fc8b600001868154811015156108dd57fe5b9060005260206000209060050201600101549081150290604051600060405180830381858888f1935050505015801561091a573d6000803e3d6000fd5b507fbb28353e4598c3b9199101a66e0989549b659a59a54d2c27fbb183f1932c8e6d838b6000018681548110151561094e57fe5b906000526020600020906005020160010154604051808373ffffffffffffffffffffffffffffffffffffffff1673ffffffffffffffffffffffffffffffffffffffff1681526020018281526020019250505060405180910390a1610bd4565b89600001848154811015156109be57fe5b9060005260206000209060050201600201548b10158015610a125750600115158a600001858154811015156109ef57fe5b906000526020600020906005020160030160009054906101000a900460ff161515145b80610a7e57508960000184815481101515610a2957fe5b9060005260206000209060050201600201548b11158015610a7d5750600015158a60000185815481101515610a5a57fe5b906000526020600020906005020160030160009054906101000a900460ff161515145b5b15610bab578960000184815481101515610a9457fe5b90600052602060002090600502016001015488019750868a60000185815481101515610abc57fe5b906000526020600020906005020160000160009054906101000a900473ffffffffffffffffffffffffffffffffffffffff1690806001815401808255809150509060018203906000526020600020016000909192909190916101000a81548173ffffffffffffffffffffffffffffffffffffffff021916908373ffffffffffffffffffffffffffffffffffffffff16021790555050848a60000185815481101515610b6357fe5b90600052602060002090600502016001015490806001815401808255809150509060018203906000526020600020016000909192909190915055508580600101965050610bd3565b8960000184815481101515610bbc57fe5b906000526020600020906005020160010154890198505b5b8380600101945050610837565b600091505b85821015610d38578482815481101515610bfc57fe5b9060005260206000200154898b60020154811515610c1657fe5b040290507f5cf9c3dc0403b88750b3ce5ea792cdca787ff26128f6d508b99b2d3853ae13ec8783815481101515610c4957fe5b9060005260206000200160009054906101000a900473ffffffffffffffffffffffffffffffffffffffff1682604051808373ffffffffffffffffffffffffffffffffffffffff1673ffffffffffffffffffffffffffffffffffffffff1681526020018281526020019250505060405180910390a18682815481101515610ccb57fe5b9060005260206000200160009054906101000a900473ffffffffffffffffffffffffffffffffffffffff1673ffffffffffffffffffffffffffffffffffffffff166108fc829081150290604051600060405180830381858888f19350505050508180600101925050610be6565b505050505050505050505050565b6000806000806000610d56610f57565b610d5e610f0f565b610d66610db5565b9150816000015189815181101515610d7a57fe5b906020019060200201519050806000015181602001518260400151836060015184608001519650965096509650965050509295509295909350565b610dbd610f57565b6000803373ffffffffffffffffffffffffffffffffffffffff1673ffffffffffffffffffffffffffffffffffffffff1681526020019081526020016000206060604051908101604052908160008201805480602002602001604051908101604052809291908181526020016000905b82821015610eee578382906000526020600020906005020160a060405190810160405290816000820160009054906101000a900473ffffffffffffffffffffffffffffffffffffffff1673ffffffffffffffffffffffffffffffffffffffff1673ffffffffffffffffffffffffffffffffffffffff16815260200160018201548152602001600282015481526020016003820160009054906101000a900460ff1615151515815260200160048201548152505081526020019060010190610e2c565b50505050815260200160018201548152602001600282015481525050905090565b60a060405190810160405280600073ffffffffffffffffffffffffffffffffffffffff1681526020016000815260200160008152602001600015158152602001600081525090565b60606040519081016040528060608152602001600081526020016000815250905600a165627a7a72305820ae94adcd19d56caecd1024f927d535e493cd31fa90a69009788f159f058112e70029",
  "source": "pragma solidity ^0.4.24;\ncontract Mining{\n/*\tusing SafeMath for uint256;\n*/\tfunction() external payable {\n\t }\n\n\tstruct Prediction {\n\t\taddress predicter;\n\t\tuint amount;\n\t\tuint difficultyPrediction;\n\t\tbool above;\n\t\tuint time;\n\t}\n\tstruct UserPredictions {\n\t\tPrediction[] predictions;\n\t\tuint length;\n\t\tuint sum;\n\t}\n\tmapping(address => UserPredictions) public predictionAddress;\n\tmapping(uint => UserPredictions) public predictionsAtTime;\n\tPrediction[] public predictionArray;\n\tuint public predictionArrayLength;\n\n\tuint public difficulty;\n\tfunction getDifficulty() public returns(uint){\n\t\tdifficulty = block.difficulty;\n\t\treturn difficulty;\n\t}\n\tfunction setPrediction(uint date, uint difficulty, bool above) public payable{\n\t\tPrediction memory prediction = Prediction(msg.sender,msg.value,difficulty,above,date);\n\t\tpredictionArray.push(prediction);\n\t\tpredictionArrayLength++;\n\t\tpredictionAddress[msg.sender].predictions.push(prediction);\n\t\tpredictionAddress[msg.sender].length++;\n\t\tpredictionsAtTime[date].predictions.push(prediction);\n\t\tpredictionsAtTime[date].length++;\n\t\tpredictionsAtTime[date].sum = predictionsAtTime[date].sum + msg.value;\n\t}\n\tfunction getPredictionFromAddress() internal returns (UserPredictions memory){\n\t\treturn predictionAddress[msg.sender];\n\t}\n\tfunction getPredictionFromAddressExternal(uint index, address _address) public returns (address,uint,uint,bool,uint){\n\t\tUserPredictions memory predictionArray = getPredictionFromAddress();\n\t\tPrediction memory prediction = predictionArray.predictions[index];\n\t\treturn (prediction.predicter,prediction.amount,prediction.difficultyPrediction,prediction.above,prediction.time);\n\t}\n\tevent Refund(address refundAddress, uint amount);\n\tevent SendEther(address sendAddress, uint amount);\n\tfunction evaluatePredictions(uint time) public{\n\t\tsimulateEvaluatePredictions(time, block.difficulty);\n\t}\n\n\tfunction simulateEvaluatePredictions(uint time, uint difficulty) public{\n\t\t\n\t\t//update to find correct prediction at time\n\t\tUserPredictions storage predictionsToCheck = predictionsAtTime[time];\n\t\t//require(time == predictionToCheck.time);\n\n\t\tuint incorrectSum=0;\n\t\tuint correctSum=0;\n\t\taddress[] storage correctAddresses;\n\t\tuint correctWagers;\n\t\tuint[] storage correctWagersValues;\n\t\tfor (uint i = 0; i < predictionsToCheck.length; i++){\n\t\t\t//this can be changed to block.difficulty in other context, like when not testing\n\t\t\tif (difficulty == predictionsToCheck.predictions[i].difficultyPrediction){\n\t\t\t\taddress refunder = predictionsToCheck.predictions[i].predicter;\n\t\t\t\trefunder.transfer(predictionsToCheck.predictions[i].amount);\n\t\t\t\temit Refund(refunder, predictionsToCheck.predictions[i].amount);\n\t\t\t}\n\t\t\telse if (((difficulty >= predictionsToCheck.predictions[i].difficultyPrediction) && predictionsToCheck.predictions[i].above == true) || \n\t\t((difficulty <= predictionsToCheck.predictions[i].difficultyPrediction) && predictionsToCheck.predictions[i].above == false)) {\n\t\t\t\tcorrectSum = correctSum + predictionsToCheck.predictions[i].amount;\n\t\t\t\tcorrectAddresses.push(predictionsToCheck.predictions[i].predicter);\n\t\t\t\tcorrectWagersValues.push(predictionsToCheck.predictions[i].amount);\n\t\t\t\tcorrectWagers++;\n\t\t\t}\n\t\t\telse {\n\t\t\t\tincorrectSum = incorrectSum + predictionsToCheck.predictions[i].amount;\n\t\t\t}\n\t\t}\n\t\tfor(uint j=0; j < correctWagers; j++){\n\t\t\tuint winningValue = predictionsToCheck.sum/incorrectSum*correctWagersValues[j];\n\t\t\temit SendEther(correctAddresses[j], winningValue);\n\n\t\t\tcorrectAddresses[j].send(winningValue);\n\t\t}\n\t}\n}",
  "sourcePath": "/home/robin/workspace/tmp/PredictMining/contracts/Mining.sol",
  "compiler": {
    "name": "solc",
    "version": "0.4.24+commit.e67f0147.Emscripten.clang"
  },
  "schemaVersion": "3.0.2",
  "updatedAt": "2019-02-20T17:58:33.480Z",
  "devdoc": {
    "methods": {}
  },
  "userdoc": {
    "methods": {}
  }
}